{
  "_format": "hh-sol-artifact-1",
  "contractName": "SimpleTreasuryDAO",
  "sourceName": "contracts/SimpleTreasuryDAO.sol",
  "abi": [
    {
      "inputs": [
        {
          "internalType": "uint256",
          "name": "_minDepositToVote",
          "type": "uint256"
        }
      ],
      "stateMutability": "nonpayable",
      "type": "constructor"
    },
    {
      "inputs": [],
      "name": "AlreadyFinalized",
      "type": "error"
    },
    {
      "inputs": [],
      "name": "AlreadyVoted",
      "type": "error"
    },
    {
      "inputs": [],
      "name": "InsufficientDeposit",
      "type": "error"
    },
    {
      "inputs": [],
      "name": "InvalidAmount",
      "type": "error"
    },
    {
      "inputs": [],
      "name": "InvalidDeadline",
      "type": "error"
    },
    {
      "inputs": [],
      "name": "InvalidRecipient",
      "type": "error"
    },
    {
      "inputs": [],
      "name": "NotFinalized",
      "type": "error"
    },
    {
      "inputs": [],
      "name": "NotProposer",
      "type": "error"
    },
    {
      "inputs": [],
      "name": "ProposalNotFound",
      "type": "error"
    },
    {
      "inputs": [],
      "name": "VotingEnded",
      "type": "error"
    },
    {
      "anonymous": false,
      "inputs": [
        {
          "indexed": true,
          "internalType": "address",
          "name": "user",
          "type": "address"
        },
        {
          "indexed": false,
          "internalType": "uint256",
          "name": "amount",
          "type": "uint256"
        }
      ],
      "name": "Deposited",
      "type": "event"
    },
    {
      "anonymous": false,
      "inputs": [
        {
          "indexed": true,
          "internalType": "uint256",
          "name": "id",
          "type": "uint256"
        },
        {
          "indexed": false,
          "internalType": "string",
          "name": "title",
          "type": "string"
        },
        {
          "indexed": false,
          "internalType": "uint256",
          "name": "amount",
          "type": "uint256"
        },
        {
          "indexed": false,
          "internalType": "address",
          "name": "recipient",
          "type": "address"
        }
      ],
      "name": "ProposalCreated",
      "type": "event"
    },
    {
      "anonymous": false,
      "inputs": [
        {
          "indexed": true,
          "internalType": "uint256",
          "name": "id",
          "type": "uint256"
        }
      ],
      "name": "ProposalFinalized",
      "type": "event"
    },
    {
      "anonymous": false,
      "inputs": [
        {
          "indexed": true,
          "internalType": "uint256",
          "name": "proposalId",
          "type": "uint256"
        },
        {
          "indexed": true,
          "internalType": "address",
          "name": "voter",
          "type": "address"
        }
      ],
      "name": "VoteCast",
      "type": "event"
    },
    {
      "anonymous": false,
      "inputs": [
        {
          "indexed": true,
          "internalType": "address",
          "name": "user",
          "type": "address"
        },
        {
          "indexed": false,
          "internalType": "uint256",
          "name": "amount",
          "type": "uint256"
        }
      ],
      "name": "Withdrawn",
      "type": "event"
    },
    {
      "inputs": [
        {
          "internalType": "string",
          "name": "title",
          "type": "string"
        },
        {
          "internalType": "string",
          "name": "description",
          "type": "string"
        },
        {
          "internalType": "uint256",
          "name": "amount",
          "type": "uint256"
        },
        {
          "internalType": "address",
          "name": "recipient",
          "type": "address"
        },
        {
          "internalType": "uint256",
          "name": "votingPeriodDays",
          "type": "uint256"
        }
      ],
      "name": "createProposal",
      "outputs": [
        {
          "internalType": "uint256",
          "name": "",
          "type": "uint256"
        }
      ],
      "stateMutability": "nonpayable",
      "type": "function"
    },
    {
      "inputs": [],
      "name": "deposit",
      "outputs": [],
      "stateMutability": "payable",
      "type": "function"
    },
    {
      "inputs": [
        {
          "internalType": "address",
          "name": "",
          "type": "address"
        }
      ],
      "name": "deposits",
      "outputs": [
        {
          "internalType": "uint256",
          "name": "",
          "type": "uint256"
        }
      ],
      "stateMutability": "view",
      "type": "function"
    },
    {
      "inputs": [
        {
          "internalType": "uint256",
          "name": "proposalId",
          "type": "uint256"
        }
      ],
      "name": "finalizeProposal",
      "outputs": [],
      "stateMutability": "nonpayable",
      "type": "function"
    },
    {
      "inputs": [
        {
          "internalType": "uint256",
          "name": "proposalId",
          "type": "uint256"
        }
      ],
      "name": "getNoVotes",
      "outputs": [
        {
          "internalType": "euint64",
          "name": "",
          "type": "bytes32"
        }
      ],
      "stateMutability": "view",
      "type": "function"
    },
    {
      "inputs": [
        {
          "internalType": "uint256",
          "name": "proposalId",
          "type": "uint256"
        }
      ],
      "name": "getProposal",
      "outputs": [
        {
          "internalType": "uint256",
          "name": "id",
          "type": "uint256"
        },
        {
          "internalType": "string",
          "name": "title",
          "type": "string"
        },
        {
          "internalType": "string",
          "name": "description",
          "type": "string"
        },
        {
          "internalType": "address",
          "name": "proposer",
          "type": "address"
        },
        {
          "internalType": "uint256",
          "name": "amount",
          "type": "uint256"
        },
        {
          "internalType": "address",
          "name": "recipient",
          "type": "address"
        },
        {
          "internalType": "uint256",
          "name": "deadline",
          "type": "uint256"
        },
        {
          "internalType": "bool",
          "name": "finalized",
          "type": "bool"
        }
      ],
      "stateMutability": "view",
      "type": "function"
    },
    {
      "inputs": [],
      "name": "getProposalCount",
      "outputs": [
        {
          "internalType": "uint256",
          "name": "",
          "type": "uint256"
        }
      ],
      "stateMutability": "view",
      "type": "function"
    },
    {
      "inputs": [
        {
          "internalType": "uint256",
          "name": "proposalId",
          "type": "uint256"
        }
      ],
      "name": "getYesVotes",
      "outputs": [
        {
          "internalType": "euint64",
          "name": "",
          "type": "bytes32"
        }
      ],
      "stateMutability": "view",
      "type": "function"
    },
    {
      "inputs": [
        {
          "internalType": "uint256",
          "name": "",
          "type": "uint256"
        },
        {
          "internalType": "address",
          "name": "",
          "type": "address"
        }
      ],
      "name": "hasVoted",
      "outputs": [
        {
          "internalType": "bool",
          "name": "",
          "type": "bool"
        }
      ],
      "stateMutability": "view",
      "type": "function"
    },
    {
      "inputs": [],
      "name": "minDepositToVote",
      "outputs": [
        {
          "internalType": "uint256",
          "name": "",
          "type": "uint256"
        }
      ],
      "stateMutability": "view",
      "type": "function"
    },
    {
      "inputs": [],
      "name": "owner",
      "outputs": [
        {
          "internalType": "address",
          "name": "",
          "type": "address"
        }
      ],
      "stateMutability": "view",
      "type": "function"
    },
    {
      "inputs": [
        {
          "internalType": "uint256",
          "name": "",
          "type": "uint256"
        }
      ],
      "name": "proposals",
      "outputs": [
        {
          "internalType": "uint256",
          "name": "id",
          "type": "uint256"
        },
        {
          "internalType": "string",
          "name": "title",
          "type": "string"
        },
        {
          "internalType": "string",
          "name": "description",
          "type": "string"
        },
        {
          "internalType": "address",
          "name": "proposer",
          "type": "address"
        },
        {
          "internalType": "uint256",
          "name": "amount",
          "type": "uint256"
        },
        {
          "internalType": "address",
          "name": "recipient",
          "type": "address"
        },
        {
          "internalType": "uint256",
          "name": "deadline",
          "type": "uint256"
        },
        {
          "internalType": "euint64",
          "name": "encryptedYesVotes",
          "type": "bytes32"
        },
        {
          "internalType": "euint64",
          "name": "encryptedNoVotes",
          "type": "bytes32"
        },
        {
          "internalType": "bool",
          "name": "finalized",
          "type": "bool"
        }
      ],
      "stateMutability": "view",
      "type": "function"
    },
    {
      "inputs": [],
      "name": "protocolId",
      "outputs": [
        {
          "internalType": "uint256",
          "name": "",
          "type": "uint256"
        }
      ],
      "stateMutability": "pure",
      "type": "function"
    },
    {
      "inputs": [
        {
          "internalType": "uint256",
          "name": "newMinDeposit",
          "type": "uint256"
        }
      ],
      "name": "updateMinDeposit",
      "outputs": [],
      "stateMutability": "nonpayable",
      "type": "function"
    },
    {
      "inputs": [
        {
          "internalType": "uint256",
          "name": "proposalId",
          "type": "uint256"
        },
        {
          "internalType": "externalEuint64",
          "name": "encryptedVote",
          "type": "bytes32"
        },
        {
          "internalType": "bytes",
          "name": "inputProof",
          "type": "bytes"
        }
      ],
      "name": "vote",
      "outputs": [],
      "stateMutability": "nonpayable",
      "type": "function"
    },
    {
      "inputs": [
        {
          "internalType": "uint256",
          "name": "amount",
          "type": "uint256"
        }
      ],
      "name": "withdraw",
      "outputs": [],
      "stateMutability": "nonpayable",
      "type": "function"
    }
  ],
  "bytecode": "0x608060405234801561000f575f80fd5b50604051611bf6380380611bf683398101604081905261002e916101c1565b6101a86100cc604080516080810182525f808252602082018190529181018290526060810191909152506040805160808101825273687820221192c5b662b25367f70076a37bc79b6c815273848b0066793bcc60346da1f49049357399b8d595602082015273a02cda4ca3a71d7c46997716f4283aa851c2881291810191909152731364cbbf2cdf5032c47d8226a6f6fbd2afcdacac606082015290565b80517f9e7b61f58c47dc699ac88507c4f5bb9f121c03808c5676a8078fe583e464970080546001600160a01b03199081166001600160a01b039384161790915560208301517f9e7b61f58c47dc699ac88507c4f5bb9f121c03808c5676a8078fe583e46497018054831691841691909117905560408301517f9e7b61f58c47dc699ac88507c4f5bb9f121c03808c5676a8078fe583e46497028054831691841691909117905560608301517f9e7b61f58c47dc699ac88507c4f5bb9f121c03808c5676a8078fe583e46497038054909216921691909117905550565b5f80546001600160a01b031916331790556001556101d8565b5f602082840312156101d1575f80fd5b5051919050565b611a11806101e55f395ff3fe6080604052600436106100ef575f3560e01c8063719c073b11610087578063c7f758a811610057578063c7f758a8146102c2578063d0e30db0146102f5578063da1f12ab146102fd578063fc7e286d14610311575f80fd5b8063719c073b146102445780638da5cb5b146102595780639a7be4711461028f578063c08cc02d146102ae575f80fd5b806339d63813116100c257806339d638131461019e57806343859632146101bd5780635652077c146102065780635eff1bb814610225575f80fd5b8063013cf08b146100f35780630956abb8146101315780631eff43221461015e5780632e1a7d4d1461017d575b5f80fd5b3480156100fe575f80fd5b5061011261010d36600461145c565b61033c565b6040516101289a999897969594939291906114b6565b60405180910390f35b34801561013c575f80fd5b5061015061014b36600461145c565b6104b8565b604051908152602001610128565b348015610169575f80fd5b5061015061017836600461158d565b610531565b348015610188575f80fd5b5061019c61019736600461145c565b6108a3565b005b3480156101a9575f80fd5b506101506101b836600461145c565b610958565b3480156101c8575f80fd5b506101f66101d7366004611619565b600460209081525f928352604080842090915290825290205460ff1681565b6040519015158152602001610128565b348015610211575f80fd5b5061019c61022036600461145c565b6109d1565b348015610230575f80fd5b5061019c61023f366004611643565b610b57565b34801561024f575f80fd5b5061015060015481565b348015610264575f80fd5b505f54610277906001600160a01b031681565b6040516001600160a01b039091168152602001610128565b34801561029a575f80fd5b5061019c6102a936600461145c565b610d4b565b3480156102b9575f80fd5b50600254610150565b3480156102cd575f80fd5b506102e16102dc36600461145c565b610d99565b604051610128989796959493929190611692565b61019c610f58565b348015610308575f80fd5b50612711610150565b34801561031c575f80fd5b5061015061032b3660046116fa565b60036020525f908152604090205481565b6002818154811061034b575f80fd5b5f9182526020909120600a9091020180546001820180549193509061036f90611713565b80601f016020809104026020016040519081016040528092919081815260200182805461039b90611713565b80156103e65780601f106103bd576101008083540402835291602001916103e6565b820191905f5260205f20905b8154815290600101906020018083116103c957829003601f168201915b5050505050908060020180546103fb90611713565b80601f016020809104026020016040519081016040528092919081815260200182805461042790611713565b80156104725780601f1061044957610100808354040283529160200191610472565b820191905f5260205f20905b81548152906001019060200180831161045557829003601f168201915b50505060038401546004850154600586015460068701546007880154600889015460099099015497986001600160a01b0395861698949750929094169450929160ff168a565b6002545f9082106104dc5760405163635e873760e01b815260040160405180910390fd5b5f600283815481106104f0576104f061174b565b5f9182526020909120600a90910201600981015490915060ff1661052757604051630df706ad60e11b815260040160405180910390fd5b6007015492915050565b600154335f90815260036020526040812054909111156105645760405163070f6eed60e11b815260040160405180910390fd5b835f036105845760405163162908e360e11b815260040160405180910390fd5b6001600160a01b0383166105ab57604051634e46966960e11b815260040160405180910390fd5b8115806105b85750601e82115b156105d657604051631da7447960e21b815260040160405180910390fd5b6002546040805161014081018252606060208083018290528284018290525f9183018290526080830182905260a0830182905260c0830182905260e0830182905261010083018290526101208301919091528382528251601f8c018290048202810182019093528a83529091908b908b90819084018382808284375f9201919091525050505060208083019190915260408051601f8a018390048302810183019091528881529089908990819084018382808284375f920191909152505050506040820152336060820152608081018690526001600160a01b03851660a08201526106c48462015180611773565b6106ce904261178a565b60c08201526106dc5f610fd2565b60e08201526106ea5f610fd2565b6101008201525f61012082018190526002805460018101825591528151600a9091027f405787fa12a823e0f2b7631cc41b3ba8828b3321ca811111fa75cd3aa3bb5ace810191825560208301518392917f405787fa12a823e0f2b7631cc41b3ba8828b3321ca811111fa75cd3aa3bb5acf019061076790826117fd565b506040820151600282019061077c90826117fd565b5060608201516003820180546001600160a01b039283166001600160a01b0319918216179091556080840151600484015560a084015160058401805491909316911617905560c0820151600682015560e082015160078201556101008201516008820155610120909101516009909101805491151560ff199092169190911790556002805461082b9190849081106108165761081661174b565b905f5260205f2090600a020160070154610fee565b50610857600283815481106108425761084261174b565b905f5260205f2090600a020160080154610fee565b50817f98504bc76d855fac343248bdddc062a45d467777dd16a83e57e505f8121562f38b8b898960405161088e94939291906118bd565b60405180910390a25098975050505050505050565b335f908152600360205260409020548111156108d25760405163162908e360e11b815260040160405180910390fd5b335f90815260036020526040812080548392906108f0908490611905565b9091555050604051339082156108fc029083905f818181858888f1935050505015801561091f573d5f803e3d5ffd5b5060405181815233907f7084f5476618d8e60b11ef0d7d3f06914655adb8793e28ff7f018d4c76d505d59060200160405180910390a250565b6002545f90821061097c5760405163635e873760e01b815260040160405180910390fd5b5f600283815481106109905761099061174b565b5f9182526020909120600a90910201600981015490915060ff166109c757604051630df706ad60e11b815260040160405180910390fd5b6008015492915050565b60025481106109f35760405163635e873760e01b815260040160405180910390fd5b5f60028281548110610a0757610a0761174b565b5f9182526020909120600a90910201600981015490915060ff1615610a3f5760405163475a253560e01b815260040160405180910390fd5b5f546001600160a01b03163314801590610a66575060038101546001600160a01b03163314155b15610a8457604051637d1b73b960e01b815260040160405180910390fd5b80600601544211610aa857604051637a19ed0560e01b815260040160405180910390fd5b60098101805460ff1916600117905560078101545f54610ad191906001600160a01b0316610ffd565b5060078101546003820154610aef91906001600160a01b0316610ffd565b5060088101545f54610b0a91906001600160a01b0316610ffd565b5060088101546003820154610b2891906001600160a01b0316610ffd565b5060405182907fe1f88450adc0106842577be8461a06e8d81ccd807a16165d60b56cca3197c5ba905f90a25050565b6002548410610b795760405163635e873760e01b815260040160405180910390fd5b600154335f908152600360205260409020541015610baa5760405163070f6eed60e11b815260040160405180910390fd5b5f84815260046020908152604080832033845290915290205460ff1615610be457604051637c9a1cf960e01b815260040160405180910390fd5b5f60028581548110610bf857610bf861174b565b905f5260205f2090600a020190508060060154421115610c2b57604051637a19ed0560e01b815260040160405180910390fd5b5f610c6b8585858080601f0160208091040260200160405190810160405280939291908181526020018383808284375f9201919091525061100f92505050565b90505f610c9c610c8483610c7f6001610fd2565b611023565b610c8e6001610fd2565b610c975f610fd2565b611051565b9050610cac836007015482611065565b60078401555f610cc2610c8484610c7f84610fd2565b9050610cd2846008015482611065565b60088501556007840154610ce590610fee565b50610cf38460080154610fee565b505f888152600460209081526040808320338085529252808320805460ff191660011790555190918a917ff1003b73c437642c0460aee9cd9628b0b8c447b66e6c7c905531b9c644214a119190a35050505050505050565b5f546001600160a01b03163314610d945760405162461bcd60e51b81526020600482015260096024820152682737ba1037bbb732b960b91b604482015260640160405180910390fd5b600155565b5f6060805f805f805f6002805490508910610dc75760405163635e873760e01b815260040160405180910390fd5b5f60028a81548110610ddb57610ddb61174b565b5f9182526020909120600a90910201805460038201546004830154600584015460068501546009860154600187018054979850959660028901956001600160a01b03908116959416929160ff16908790610e3490611713565b80601f0160208091040260200160405190810160405280929190818152602001828054610e6090611713565b8015610eab5780601f10610e8257610100808354040283529160200191610eab565b820191905f5260205f20905b815481529060010190602001808311610e8e57829003601f168201915b50505050509650858054610ebe90611713565b80601f0160208091040260200160405190810160405280929190818152602001828054610eea90611713565b8015610f355780601f10610f0c57610100808354040283529160200191610f35565b820191905f5260205f20905b815481529060010190602001808311610f1857829003601f168201915b505050505095509850985098509850985098509850985050919395975091939597565b345f03610f785760405163162908e360e11b815260040160405180910390fd5b335f9081526003602052604081208054349290610f9690849061178a565b909155505060405134815233907f2da466a7b24304f47e87fa2e1e5a81b9831ce54fec19055ce277ca2f39ba42c49060200160405180910390a2565b5f610fe88267ffffffffffffffff166005611093565b92915050565b5f610ff98230611122565b5090565b5f6110088383611122565b5090919050565b5f61101c83836005611198565b9392505050565b5f82611035576110325f610fd2565b92505b81611046576110435f610fd2565b91505b61101c83835f611292565b5f61105d84848461134f565b949350505050565b5f82611077576110745f610fd2565b92505b81611088576110855f610fd2565b91505b61101c83835f6113e5565b5f8051602061199c83398151915254604051639cd07acb60e01b81525f915f805160206119bc833981519152916001600160a01b0390911690639cd07acb906110e29087908790600401611938565b6020604051808303815f875af11580156110fe573d5f803e3d5ffd5b505050506040513d601f19601f8201168201806040525081019061105d919061194c565b5f5f805160206119bc8339815191528054604051635ca4b5b160e11b8152600481018690526001600160a01b03858116602483015292935091169063b9496b62906044015f604051808303815f87803b15801561117d575f80fd5b505af115801561118f573d5f803e3d5ffd5b50505050505050565b5f8051602061199c8339815191525460405163196d0b9b60e01b81525f915f805160206119bc833981519152916001600160a01b039091169063196d0b9b906111eb908890339089908990600401611963565b6020604051808303815f875af1158015611207573d5f803e3d5ffd5b505050506040513d601f19601f8201168201806040525081019061122b919061194c565b8154604051630f8e573b60e21b8152600481018390523360248201529193506001600160a01b031690633e395cec906044015f604051808303815f87803b158015611274575f80fd5b505af1158015611286573d5f803e3d5ffd5b50505050509392505050565b5f8082156112a55750600160f81b6112a8565b505f5b5f8051602061199c8339815191525460405163f77f3f1d60e01b815260048101879052602481018690526001600160f81b0319831660448201525f805160206119bc833981519152916001600160a01b03169063f77f3f1d906064015b6020604051808303815f875af1158015611321573d5f803e3d5ffd5b505050506040513d601f19601f82011682018060405250810190611345919061194c565b9695505050505050565b5f805f805160206119bc8339815191526001810154604051637702dcff60e01b81526004810188905260248101879052604481018690529192506001600160a01b031690637702dcff906064016020604051808303815f875af11580156113b8573d5f803e3d5ffd5b505050506040513d601f19601f820116820180604052508101906113dc919061194c565b95945050505050565b5f8082156113f85750600160f81b6113fb565b505f5b5f8051602061199c8339815191525460405163022f65e760e31b815260048101879052602481018690526001600160f81b0319831660448201525f805160206119bc833981519152916001600160a01b03169063117b2f3890606401611305565b5f6020828403121561146c575f80fd5b5035919050565b5f81518084525f5b818110156114975760208185018101518683018201520161147b565b505f602082860101526020601f19601f83011685010191505092915050565b5f6101408c83528060208401526114cf8184018d611473565b905082810360408401526114e3818c611473565b6001600160a01b039a8b166060850152608084019990995250509490961660a085015260c084019290925260e0830152610100820152911515610120909201919091529392505050565b5f8083601f84011261153d575f80fd5b50813567ffffffffffffffff811115611554575f80fd5b60208301915083602082850101111561156b575f80fd5b9250929050565b80356001600160a01b0381168114611588575f80fd5b919050565b5f805f805f805f60a0888a0312156115a3575f80fd5b873567ffffffffffffffff808211156115ba575f80fd5b6115c68b838c0161152d565b909950975060208a01359150808211156115de575f80fd5b506115eb8a828b0161152d565b9096509450506040880135925061160460608901611572565b91506080880135905092959891949750929550565b5f806040838503121561162a575f80fd5b8235915061163a60208401611572565b90509250929050565b5f805f8060608587031215611656575f80fd5b8435935060208501359250604085013567ffffffffffffffff81111561167a575f80fd5b6116868782880161152d565b95989497509550505050565b5f6101008a83528060208401526116ab8184018b611473565b905082810360408401526116bf818a611473565b6001600160a01b039889166060850152608084019790975250509290941660a083015260c082015291151560e0909201919091529392505050565b5f6020828403121561170a575f80fd5b61101c82611572565b600181811c9082168061172757607f821691505b60208210810361174557634e487b7160e01b5f52602260045260245ffd5b50919050565b634e487b7160e01b5f52603260045260245ffd5b634e487b7160e01b5f52601160045260245ffd5b8082028115828204841417610fe857610fe861175f565b80820180821115610fe857610fe861175f565b634e487b7160e01b5f52604160045260245ffd5b601f8211156117f857805f5260205f20601f840160051c810160208510156117d65750805b601f840160051c820191505b818110156117f5575f81556001016117e2565b50505b505050565b815167ffffffffffffffff8111156118175761181761179d565b61182b816118258454611713565b846117b1565b602080601f83116001811461185e575f84156118475750858301515b5f19600386901b1c1916600185901b1785556118b5565b5f85815260208120601f198616915b8281101561188c5788860151825594840194600190910190840161186d565b50858210156118a957878501515f19600388901b60f8161c191681555b505060018460011b0185555b505050505050565b60608152836060820152838560808301375f608085830181019190915260208201939093526001600160a01b03919091166040820152601f909201601f191690910101919050565b81810381811115610fe857610fe861175f565b6054811061193457634e487b7160e01b5f52602160045260245ffd5b9052565b8281526040810161101c6020830184611918565b5f6020828403121561195c575f80fd5b5051919050565b8481526001600160a01b03841660208201526080604082018190525f9061198c90830185611473565b90506113dc606083018461191856fe9e7b61f58c47dc699ac88507c4f5bb9f121c03808c5676a8078fe583e46497019e7b61f58c47dc699ac88507c4f5bb9f121c03808c5676a8078fe583e4649700a26469706673582212200ec885d45da49c67803230544401d219d37c41ef25977c999d11648af1ec44fc64736f6c63430008180033",
  "linkReferences": {},
  "deployedLinkReferences": {}
}