{
  "_format": "hh-sol-artifact-1",
  "contractName": "TreasuryDAO",
  "sourceName": "contracts/TreasuryDAO.sol",
  "abi": [
    {
      "inputs": [
        {
          "internalType": "address[]",
          "name": "initialMembers",
          "type": "address[]"
        },
        {
          "internalType": "uint256",
          "name": "minQuorum",
          "type": "uint256"
        }
      ],
      "stateMutability": "nonpayable",
      "type": "constructor"
    },
    {
      "inputs": [],
      "name": "AlreadyExecuted",
      "type": "error"
    },
    {
      "inputs": [],
      "name": "AlreadyVoted",
      "type": "error"
    },
    {
      "inputs": [],
      "name": "InvalidRecipient",
      "type": "error"
    },
    {
      "inputs": [],
      "name": "InvalidVotingPeriod",
      "type": "error"
    },
    {
      "inputs": [],
      "name": "NotMember",
      "type": "error"
    },
    {
      "inputs": [],
      "name": "NotOwner",
      "type": "error"
    },
    {
      "inputs": [],
      "name": "PastDeadline",
      "type": "error"
    },
    {
      "inputs": [],
      "name": "QuorumNotReached",
      "type": "error"
    },
    {
      "inputs": [],
      "name": "VotingOngoing",
      "type": "error"
    },
    {
      "anonymous": false,
      "inputs": [],
      "name": "Deposit",
      "type": "event"
    },
    {
      "anonymous": false,
      "inputs": [
        {
          "indexed": true,
          "internalType": "uint256",
          "name": "id",
          "type": "uint256"
        },
        {
          "indexed": true,
          "internalType": "address",
          "name": "recipient",
          "type": "address"
        }
      ],
      "name": "Executed",
      "type": "event"
    },
    {
      "anonymous": false,
      "inputs": [
        {
          "indexed": false,
          "internalType": "address",
          "name": "member",
          "type": "address"
        }
      ],
      "name": "MemberAdded",
      "type": "event"
    },
    {
      "anonymous": false,
      "inputs": [
        {
          "indexed": false,
          "internalType": "address",
          "name": "member",
          "type": "address"
        }
      ],
      "name": "MemberRemoved",
      "type": "event"
    },
    {
      "anonymous": false,
      "inputs": [
        {
          "indexed": true,
          "internalType": "uint256",
          "name": "id",
          "type": "uint256"
        }
      ],
      "name": "ProposalCancelled",
      "type": "event"
    },
    {
      "anonymous": false,
      "inputs": [
        {
          "indexed": true,
          "internalType": "uint256",
          "name": "id",
          "type": "uint256"
        },
        {
          "indexed": true,
          "internalType": "address",
          "name": "recipient",
          "type": "address"
        }
      ],
      "name": "ProposalCreated",
      "type": "event"
    },
    {
      "anonymous": false,
      "inputs": [
        {
          "indexed": false,
          "internalType": "uint256",
          "name": "oldQuorum",
          "type": "uint256"
        },
        {
          "indexed": false,
          "internalType": "uint256",
          "name": "newQuorum",
          "type": "uint256"
        }
      ],
      "name": "QuorumUpdated",
      "type": "event"
    },
    {
      "anonymous": false,
      "inputs": [
        {
          "indexed": true,
          "internalType": "uint256",
          "name": "id",
          "type": "uint256"
        },
        {
          "indexed": true,
          "internalType": "address",
          "name": "voter",
          "type": "address"
        }
      ],
      "name": "Voted",
      "type": "event"
    },
    {
      "inputs": [],
      "name": "MAX_VOTING_PERIOD",
      "outputs": [
        {
          "internalType": "uint256",
          "name": "",
          "type": "uint256"
        }
      ],
      "stateMutability": "view",
      "type": "function"
    },
    {
      "inputs": [],
      "name": "MIN_VOTING_PERIOD",
      "outputs": [
        {
          "internalType": "uint256",
          "name": "",
          "type": "uint256"
        }
      ],
      "stateMutability": "view",
      "type": "function"
    },
    {
      "inputs": [
        {
          "internalType": "address",
          "name": "m",
          "type": "address"
        }
      ],
      "name": "addMember",
      "outputs": [],
      "stateMutability": "nonpayable",
      "type": "function"
    },
    {
      "inputs": [
        {
          "internalType": "uint256",
          "name": "id",
          "type": "uint256"
        }
      ],
      "name": "cancelProposal",
      "outputs": [],
      "stateMutability": "nonpayable",
      "type": "function"
    },
    {
      "inputs": [
        {
          "internalType": "address",
          "name": "recipient",
          "type": "address"
        },
        {
          "internalType": "externalEuint64",
          "name": "encryptedAmt",
          "type": "bytes32"
        },
        {
          "internalType": "bytes",
          "name": "inputProof",
          "type": "bytes"
        },
        {
          "internalType": "uint256",
          "name": "votingPeriodSec",
          "type": "uint256"
        }
      ],
      "name": "createProposal",
      "outputs": [
        {
          "internalType": "uint256",
          "name": "id",
          "type": "uint256"
        }
      ],
      "stateMutability": "nonpayable",
      "type": "function"
    },
    {
      "inputs": [
        {
          "internalType": "externalEuint64",
          "name": "encryptedAmt",
          "type": "bytes32"
        },
        {
          "internalType": "bytes",
          "name": "inputProof",
          "type": "bytes"
        }
      ],
      "name": "depositEncrypted",
      "outputs": [],
      "stateMutability": "nonpayable",
      "type": "function"
    },
    {
      "inputs": [
        {
          "internalType": "uint256",
          "name": "id",
          "type": "uint256"
        }
      ],
      "name": "execute",
      "outputs": [],
      "stateMutability": "nonpayable",
      "type": "function"
    },
    {
      "inputs": [
        {
          "internalType": "uint256",
          "name": "id",
          "type": "uint256"
        }
      ],
      "name": "getExecutedAmount",
      "outputs": [
        {
          "internalType": "euint64",
          "name": "",
          "type": "bytes32"
        }
      ],
      "stateMutability": "view",
      "type": "function"
    },
    {
      "inputs": [
        {
          "internalType": "uint256",
          "name": "id",
          "type": "uint256"
        }
      ],
      "name": "getRequestedAmount",
      "outputs": [
        {
          "internalType": "euint64",
          "name": "",
          "type": "bytes32"
        }
      ],
      "stateMutability": "view",
      "type": "function"
    },
    {
      "inputs": [],
      "name": "getTreasury",
      "outputs": [
        {
          "internalType": "euint64",
          "name": "",
          "type": "bytes32"
        }
      ],
      "stateMutability": "view",
      "type": "function"
    },
    {
      "inputs": [
        {
          "internalType": "address",
          "name": "",
          "type": "address"
        }
      ],
      "name": "isMember",
      "outputs": [
        {
          "internalType": "bool",
          "name": "",
          "type": "bool"
        }
      ],
      "stateMutability": "view",
      "type": "function"
    },
    {
      "inputs": [],
      "name": "owner",
      "outputs": [
        {
          "internalType": "address",
          "name": "",
          "type": "address"
        }
      ],
      "stateMutability": "view",
      "type": "function"
    },
    {
      "inputs": [
        {
          "internalType": "uint256",
          "name": "",
          "type": "uint256"
        }
      ],
      "name": "proposals",
      "outputs": [
        {
          "internalType": "address",
          "name": "recipient",
          "type": "address"
        },
        {
          "internalType": "euint64",
          "name": "encAmount",
          "type": "bytes32"
        },
        {
          "internalType": "uint256",
          "name": "yesVotes",
          "type": "uint256"
        },
        {
          "internalType": "uint256",
          "name": "deadline",
          "type": "uint256"
        },
        {
          "internalType": "bool",
          "name": "executed",
          "type": "bool"
        },
        {
          "internalType": "euint64",
          "name": "executedEnc",
          "type": "bytes32"
        }
      ],
      "stateMutability": "view",
      "type": "function"
    },
    {
      "inputs": [],
      "name": "protocolId",
      "outputs": [
        {
          "internalType": "uint256",
          "name": "",
          "type": "uint256"
        }
      ],
      "stateMutability": "pure",
      "type": "function"
    },
    {
      "inputs": [],
      "name": "quorum",
      "outputs": [
        {
          "internalType": "uint256",
          "name": "",
          "type": "uint256"
        }
      ],
      "stateMutability": "view",
      "type": "function"
    },
    {
      "inputs": [
        {
          "internalType": "address",
          "name": "m",
          "type": "address"
        }
      ],
      "name": "removeMember",
      "outputs": [],
      "stateMutability": "nonpayable",
      "type": "function"
    },
    {
      "inputs": [
        {
          "internalType": "uint256",
          "name": "newQuorum",
          "type": "uint256"
        }
      ],
      "name": "updateQuorum",
      "outputs": [],
      "stateMutability": "nonpayable",
      "type": "function"
    },
    {
      "inputs": [
        {
          "internalType": "uint256",
          "name": "id",
          "type": "uint256"
        }
      ],
      "name": "voteYes",
      "outputs": [],
      "stateMutability": "nonpayable",
      "type": "function"
    },
    {
      "inputs": [
        {
          "internalType": "uint256",
          "name": "",
          "type": "uint256"
        },
        {
          "internalType": "address",
          "name": "",
          "type": "address"
        }
      ],
      "name": "voted",
      "outputs": [
        {
          "internalType": "bool",
          "name": "",
          "type": "bool"
        }
      ],
      "stateMutability": "view",
      "type": "function"
    }
  ],
  "bytecode": "0x608060405234801562000010575f80fd5b506040516200191e3803806200191e8339810160408190526200003391620003a6565b620001af620000d3604080516080810182525f808252602082018190529181018290526060810191909152506040805160808101825273687820221192c5b662b25367f70076a37bc79b6c815273848b0066793bcc60346da1f49049357399b8d595602082015273a02cda4ca3a71d7c46997716f4283aa851c2881291810191909152731364cbbf2cdf5032c47d8226a6f6fbd2afcdacac606082015290565b80517f9e7b61f58c47dc699ac88507c4f5bb9f121c03808c5676a8078fe583e464970080546001600160a01b03199081166001600160a01b039384161790915560208301517f9e7b61f58c47dc699ac88507c4f5bb9f121c03808c5676a8078fe583e46497018054831691841691909117905560408301517f9e7b61f58c47dc699ac88507c4f5bb9f121c03808c5676a8078fe583e46497028054831691841691909117905560608301517f9e7b61f58c47dc699ac88507c4f5bb9f121c03808c5676a8078fe583e46497038054909216921691909117905550565b5f80546001600160a01b0319163317815560018290555b82518110156200029357600160055f858481518110620001ea57620001ea6200047b565b60200260200101516001600160a01b03166001600160a01b031681526020019081526020015f205f6101000a81548160ff0219169083151502179055507fb251eb052afc73ffd02ffe85ad79990a8b3fed60d76dbc2fa2fdd7123dffd9148382815181106200025d576200025d6200047b565b60200260200101516040516200028291906001600160a01b0391909116815260200190565b60405180910390a1600101620001c6565b50600254620002a290620002c6565b506002545f54620002bd91906001600160a01b0316620002d7565b5050506200048f565b5f620002d38230620002eb565b5090565b5f620002e48383620002eb565b5090919050565b5f7f9e7b61f58c47dc699ac88507c4f5bb9f121c03808c5676a8078fe583e46497008054604051635ca4b5b160e11b8152600481018690526001600160a01b03858116602483015292935091169063b9496b62906044015f604051808303815f87803b1580156200035a575f80fd5b505af11580156200036d573d5f803e3d5ffd5b50505050505050565b634e487b7160e01b5f52604160045260245ffd5b80516001600160a01b0381168114620003a1575f80fd5b919050565b5f8060408385031215620003b8575f80fd5b82516001600160401b0380821115620003cf575f80fd5b818501915085601f830112620003e3575f80fd5b8151602082821115620003fa57620003fa62000376565b8160051b604051601f19603f8301168101818110868211171562000422576200042262000376565b60405292835281830193508481018201928984111562000440575f80fd5b948201945b83861015620004695762000459866200038a565b8552948201949382019362000445565b97909101519698969750505050505050565b634e487b7160e01b5f52603260045260245ffd5b611481806200049d5f395ff3fe608060405234801561000f575f80fd5b506004361061011c575f3560e01c806386a1d954116100a9578063ca6d56dc1161006e578063ca6d56dc146102a0578063da1f12ab146102b3578063dbe42bd4146102bb578063e0a8f6f5146102ce578063fe0d94c1146102e1575f80fd5b806386a1d954146102245780638cd7d830146102375780638da5cb5b1461024a578063a230c52414610274578063a64e024a14610296575f80fd5b806335680dc2116100ef57806335680dc2146101a65780633b19e84a146101b95780635277b4ae146101c15780636a1cf721146101fe5780637e3c947314610211575f80fd5b8063013cf08b146101205780630b1ca49a146101715780631703a01814610186578063215809ca1461019d575b5f80fd5b61013361012e36600461118b565b6102f4565b604080516001600160a01b03909716875260208701959095529385019290925260608401521515608083015260a082015260c0015b60405180910390f35b61018461017f3660046111bd565b610348565b005b61018f60015481565b604051908152602001610168565b61018f610e1081565b6101846101b436600461118b565b6103c9565b60025461018f565b6101ee6101cf3660046111d6565b600460209081525f928352604080842090915290825290205460ff1681565b6040519015158152602001610168565b61018461020c36600461118b565b610434565b61018f61021f36600461118b565b610554565b61018f610232366004611245565b61057f565b61018f61024536600461118b565b610872565b5f5461025c906001600160a01b031681565b6040516001600160a01b039091168152602001610168565b6101ee6102823660046111bd565b60056020525f908152604090205460ff1681565b61018f62278d0081565b6101846102ae3660046111bd565b61089d565b61271161018f565b6101846102c93660046112a2565b61091a565b6101846102dc36600461118b565b6109e8565b6101846102ef36600461118b565b610ad0565b60038181548110610303575f80fd5b5f9182526020909120600690910201805460018201546002830154600384015460048501546005909501546001600160a01b0390941695509193909260ff9091169086565b5f546001600160a01b03163314610372576040516330cd747160e01b815260040160405180910390fd5b6001600160a01b0381165f81815260056020908152604091829020805460ff1916905590519182527f6e76fb4c77256006d9c38ec7d82b45a8c8f3c27b1d6766fffc42dfb8de68449291015b60405180910390a150565b5f546001600160a01b031633146103f3576040516330cd747160e01b815260040160405180910390fd5b60015460408051918252602082018390527f6784e9bcb845caaa98267d7b0918f97d3d17f7cb35a05b52010f7eb587a0acb0910160405180910390a1600155565b335f9081526005602052604090205460ff166104635760405163148fe22160e11b815260040160405180910390fd5b5f60038281548110610477576104776112ea565b905f5260205f209060060201905080600301544211156104aa576040516381efbd8d60e01b815260040160405180910390fd5b5f82815260046020908152604080832033845290915290205460ff16156104e457604051637c9a1cf960e01b815260040160405180910390fd5b5f8281526004602090815260408083203384529091528120805460ff191660019081179091556002830180549192909161051f908490611312565b9091555050604051339083907f030b0f8dcd86a031eddb071f91882edeac8173663ba775713b677b42b51be44b905f90a35050565b5f60038281548110610568576105686112ea565b905f5260205f209060060201600501549050919050565b335f9081526005602052604081205460ff166105ae5760405163148fe22160e11b815260040160405180910390fd5b6001600160a01b0386166105d557604051634e46966960e11b815260040160405180910390fd5b610e108210806105e7575062278d0082115b15610605576040516305a612e360e01b815260040160405180910390fd5b5f6106458686868080601f0160208091040260200160405190810160405280939291908181526020018383808284375f92019190915250610c8e92505050565b6040805160c0810182525f918101829052606081018290526080810182905260a08101919091526001600160a01b03891681526020810182905290915061068c8442611312565b606082019081525f6080830181815260038054600180820183559382905285517fc2575a0e9e593c00f959f8c92f12db2869c3395a3b0502d05e2516446f71f85b600690920291820180546001600160a01b0319166001600160a01b0390921691909117905560208601517fc2575a0e9e593c00f959f8c92f12db2869c3395a3b0502d05e2516446f71f85c82015560408601517fc2575a0e9e593c00f959f8c92f12db2869c3395a3b0502d05e2516446f71f85d82015593517fc2575a0e9e593c00f959f8c92f12db2869c3395a3b0502d05e2516446f71f85e85015590517fc2575a0e9e593c00f959f8c92f12db2869c3395a3b0502d05e2516446f71f85f8401805460ff191691151591909117905560a08401517fc2575a0e9e593c00f959f8c92f12db2869c3395a3b0502d05e2516446f71f8609093019290925590546107d79190611325565b9250610804600384815481106107ef576107ef6112ea565b905f5260205f20906006020160010154610ca4565b506108316003848154811061081b5761081b6112ea565b905f5260205f2090600602016001015489610cb3565b506040516001600160a01b0389169084907fcd423cc1203c0af96b9b3d68d73b3064a69de2d14450bb7181c5e5df2132b358905f90a3505095945050505050565b5f60038281548110610886576108866112ea565b905f5260205f209060060201600101549050919050565b5f546001600160a01b031633146108c7576040516330cd747160e01b815260040160405180910390fd5b6001600160a01b0381165f81815260056020908152604091829020805460ff1916600117905590519182527fb251eb052afc73ffd02ffe85ad79990a8b3fed60d76dbc2fa2fdd7123dffd91491016103be565b5f546001600160a01b03163314610944576040516330cd747160e01b815260040160405180910390fd5b5f6109848484848080601f0160208091040260200160405190810160405280939291908181526020018383808284375f92019190915250610c8e92505050565b905061099260025482610cc5565b60028190556109a090610ca4565b506002545f546109b991906001600160a01b0316610cb3565b506040517fed21248cb703b524cc0029bb8669df941baca560163a3bc6ad184e7e9c268070905f90a150505050565b5f546001600160a01b03163314610a12576040516330cd747160e01b815260040160405180910390fd5b5f60038281548110610a2657610a266112ea565b5f9182526020909120600690910201600481015490915060ff1615610a5e57604051630dc1019760e01b815260040160405180910390fd5b60048101805460ff19166001179055610a765f610cf3565b60058201819055610a8690610ca4565b5060058101545f54610aa191906001600160a01b0316610cb3565b5060405182907f416e669c63d9a3a5e36ee7cc7e2104b8db28ccd286aa18966e98fa230c73b08c905f90a25050565b335f9081526005602052604090205460ff16610aff5760405163148fe22160e11b815260040160405180910390fd5b5f60038281548110610b1357610b136112ea565b5f9182526020909120600690910201600481015490915060ff1615610b4b57604051630dc1019760e01b815260040160405180910390fd5b6001546002820154101580610b98578160030154421015610b7f57604051635b64ca4160e11b815260040160405180910390fd5b60405163aa26a69360e01b815260040160405180910390fd5b5f610bbf610bac8460010154600254610d09565b8460010154610bba5f610cf3565b610d37565b9050610bcd60025482610d4d565b60029081556005840182905560048401805460ff1916600117905554610bf290610ca4565b506002545f54610c0b91906001600160a01b0316610cb3565b50610c198360050154610ca4565b5060058301548354610c3491906001600160a01b0316610cb3565b5060058301545f54610c4f91906001600160a01b0316610cb3565b5082546040516001600160a01b039091169085907f7271f8b3d48d26ccc839c0f424fe9e12fe4e058108b58c096c078659c7fbadf6905f90a350505050565b5f610c9b83836005610d7b565b90505b92915050565b5f610caf8230610e75565b5090565b5f610cbe8383610e75565b5090919050565b5f82610cd757610cd45f610cf3565b92505b81610ce857610ce55f610cf3565b91505b610c9b83835f610eeb565b5f610c9e8267ffffffffffffffff166005610f98565b5f82610d1b57610d185f610cf3565b92505b81610d2c57610d295f610cf3565b91505b610c9b83835f61102f565b5f610d43848484611092565b90505b9392505050565b5f82610d5f57610d5c5f610cf3565b92505b81610d7057610d6d5f610cf3565b91505b610c9b83835f611128565b5f8051602061140c8339815191525460405163196d0b9b60e01b81525f915f8051602061142c833981519152916001600160a01b039091169063196d0b9b90610dce908890339089908990600401611358565b6020604051808303815f875af1158015610dea573d5f803e3d5ffd5b505050506040513d601f19601f82011682018060405250810190610e0e91906113c0565b8154604051630f8e573b60e21b8152600481018390523360248201529193506001600160a01b031690633e395cec906044015f604051808303815f87803b158015610e57575f80fd5b505af1158015610e69573d5f803e3d5ffd5b50505050509392505050565b5f5f8051602061142c8339815191528054604051635ca4b5b160e11b8152600481018690526001600160a01b03858116602483015292935091169063b9496b62906044015f604051808303815f87803b158015610ed0575f80fd5b505af1158015610ee2573d5f803e3d5ffd5b50505050505050565b5f808215610efe5750600160f81b610f01565b505f5b5f8051602061140c8339815191525460405163022f65e760e31b81525f8051602061142c833981519152916001600160a01b03169063117b2f3890610f4e908990899087906004016113d7565b6020604051808303815f875af1158015610f6a573d5f803e3d5ffd5b505050506040513d601f19601f82011682018060405250810190610f8e91906113c0565b9695505050505050565b5f8051602061140c83398151915254604051639cd07acb60e01b81525f915f8051602061142c833981519152916001600160a01b0390911690639cd07acb90610fe790879087906004016113f7565b6020604051808303815f875af1158015611003573d5f803e3d5ffd5b505050506040513d601f19601f8201168201806040525081019061102791906113c0565b949350505050565b5f8082156110425750600160f81b611045565b505f5b5f8051602061140c83398151915254604051631d44e90160e21b81525f8051602061142c833981519152916001600160a01b031690637513a40490610f4e908990899087906004016113d7565b5f805f8051602061142c8339815191526001810154604051637702dcff60e01b81526004810188905260248101879052604481018690529192506001600160a01b031690637702dcff906064016020604051808303815f875af11580156110fb573d5f803e3d5ffd5b505050506040513d601f19601f8201168201806040525081019061111f91906113c0565b95945050505050565b5f80821561113b5750600160f81b61113e565b505f5b5f8051602061140c833981519152546040516303056db360e31b81525f8051602061142c833981519152916001600160a01b03169063182b6d9890610f4e908990899087906004016113d7565b5f6020828403121561119b575f80fd5b5035919050565b80356001600160a01b03811681146111b8575f80fd5b919050565b5f602082840312156111cd575f80fd5b610c9b826111a2565b5f80604083850312156111e7575f80fd5b823591506111f7602084016111a2565b90509250929050565b5f8083601f840112611210575f80fd5b50813567ffffffffffffffff811115611227575f80fd5b60208301915083602082850101111561123e575f80fd5b9250929050565b5f805f805f60808688031215611259575f80fd5b611262866111a2565b945060208601359350604086013567ffffffffffffffff811115611284575f80fd5b61129088828901611200565b96999598509660600135949350505050565b5f805f604084860312156112b4575f80fd5b83359250602084013567ffffffffffffffff8111156112d1575f80fd5b6112dd86828701611200565b9497909650939450505050565b634e487b7160e01b5f52603260045260245ffd5b634e487b7160e01b5f52601160045260245ffd5b80820180821115610c9e57610c9e6112fe565b81810381811115610c9e57610c9e6112fe565b6054811061135457634e487b7160e01b5f52602160045260245ffd5b9052565b8481525f602060018060a01b03861660208401526080604084015284518060808501525f5b818110156113995786810183015185820160a00152820161137d565b505f60a0828601015260a0601f19601f8301168501019250505061111f6060830184611338565b5f602082840312156113d0575f80fd5b5051919050565b92835260208301919091526001600160f81b031916604082015260600190565b82815260408101610d46602083018461133856fe9e7b61f58c47dc699ac88507c4f5bb9f121c03808c5676a8078fe583e46497019e7b61f58c47dc699ac88507c4f5bb9f121c03808c5676a8078fe583e4649700a2646970667358221220641f0ff60b041b7fd330267bd8ebe635c08ba01de5e1e12578ceb1f8cffb9f5c64736f6c63430008180033",
  "linkReferences": {},
  "deployedLinkReferences": {}
}